:020000041000EA
:10000000002008205D0100101B0100101D010010E0
:100010001101001011010010110100101101001058
:100020001901001019010010190100101F01001022
:10003000110100101901001021010010230100100E
:100040001101001011010010110100101101001028
:100050001101001011010010110100101101001018
:100060001101001011010010110100101101001008
:1000700011010010110100101101001011010010F8
:1000800011010010110100101101001011010010E8
:1000900011010010110100101101001011010010D8
:1000A00011010010110100101101001011010010C8
:1000B00011010010110100101101001011010010B8
:1000C00011010010110100101101001011010010A8
:1000D0001101001011010010110100101101001098
:1000E0001101001011010010110100101101001088
:1000F0001101001011010010110100101101001078
:100100001101001011010010110100101101001067
:10011000EFF30580103800BE00BE00BE00BE00BE7A
:1001200000BE00BEF2EB88718C410010B44100109B
:10013000A001001090A31AE7D3DEFFFF42012110B7
:10014000FF010000B8450000793512AB4FF0000008
:100150001E49086006C881F3088810474FF05040D8
:10016000006810B14FF00000F2E70DA40ECC00299A
:1001700002D000F012F8F9E71549164A002000E015
:1001800001C19142FCD11449884714498847144958
:10019000884700BEFDE701C901C29A42FBD3704700
:1001A000B4410010100100204C060020F046001061
:1001B0000000082000000820F04600100010082071
:1001C00000100820000000007047000008ED00E06B
:1001D0004C0600208C0A00202D2F0010FD0300107B
:1001E000F12E0010F8B500BF0348044B834202D043
:1001F000034B03B1184770474C0600204C06002003
:1002000000000000064B0749C91A891048BF013198
:10021000491003D0044B0BB101481847704700BF89
:100220004C0600204C0600200000000010B5064CD3
:10023000237843B9FFF7D8FF044B13B10448AFF359
:1002400000800123237010BDD007002000000000B3
:10025000E839001008B5044B1BB104490448AFF35A
:100260000080BDE80840CDE700000000D407002072
:10027000E839001082B08C46184B984214BF002316
:100280000123174A32F913308B4205D08DF807C08D
:1002900000210DF107021CE00D238DF8073000212D
:1002A0000DF107020029F1D1836913F0200FFBD172
:1002B000134613F8012B026001311A46F2E78369F5
:1002C00013F0200FFBD1134613F8012B026001310C
:1002D0001A460029F3D002B0704700BF00800740E3
:1002E000800A002030B583B004460D46002319E093
:1002F0008DF8071000200DF1070209E0A36913F043
:10030000200FFBD1134613F8012B226001301A464F
:100310000028F3D02A4612F8013B0D2B14BF00230E
:1003200001231546297829B1002BE1D12046FFF79A
:10033000A1FFEFE703B030BD00B585B08DF80C002C
:100340008DF80D1000230093022303AA68210348AF
:1003500003F004FA05B05DF804FB00BF3C06002082
:1003600070B584B00C4615468DF80F00094E012378
:1003700000930DF10F026821304603F0EFF90023DE
:1003800000932B4622466821304603F0F3F904B06F
:1003900070BD00BF3C06002010B582B000238DF870
:1003A000073001220DF107017520FFF7D9FF9DF8F5
:1003B0000730472B0CD00E4C0E4A8021204602F00D
:1003C0006FFD21460C48FFF78DFF002002B010BDE5
:1003D00001211120FFF7B0FF022000F00DFF0F21D7
:1003E0004E20FFF7A9FF322000F006FF0120EDE7C5
:1003F000000A0020E83900100080074070B58AB07C
:1004000002F0A8FE3D4C4FF4E131204601F084F8A3
:100410000B210A2000F080F80B21084600F07CF840
:100420003749384803F070F90321042000F074F8CC
:100430000321052000F070F800220121042000F0C3
:1004400087F800220121052000F082F84FF47A702D
:1004500000F0D2FE2C492046FFF744FFFFF79CFF37
:1004600020B94FF47A7000F0C7FEFAE72749234815
:10047000FFF738FF0C2207A91F20FFF771FF9DF837
:100480001C301B021BB29DF81DC09DF81E201202DD
:1004900012B29DF81F100A439DF82010090209B2FC
:1004A0009DF8210001439DF82200000200B29DF852
:1004B000234020439DF82440240224B29DF8255077
:1004C0002C439DF826502D022DB29DF82760354310
:1004D0000F4E0495039402900191009243EA0C039D
:1004E0000C4A8021304602F0DBFC31460348FFF71E
:1004F000F9FE642000F080FEBCE700BF00800740EA
:10050000801A06003C060020203A0010483A0010ED
:10051000000A0020703A00100C4B03EB800253F8E5
:10052000203083F0400303F0C00302F5805CCCF878
:100530000030C00000F1804000F52030416002F53D
:1005400040524FF480731360704700BF0480034033
:1005500010B40C4C04EB800C79B108237AB104225E
:10056000134354F82020534003F00C030CF5805C37
:10057000CCF800305DF8044B70470023EEE7002212
:10058000EEE700BF048003400FB400B583B0049CC5
:10059000074802F0E4FD3CB105A90191204602F0B4
:1005A000EDFD044802F0DBFD012002F09FFC00BFDE
:1005B000AC3A00101C3A0010EFF3108072B6064BF4
:1005C000D3E8CF1F01220029FAD1C3E8412F002927
:1005D000F6D1BFF35F8F70478B0900200023034AD9
:1005E000C2E88F3F80F31088704700BF8B0900205E
:1005F00070B505460C461646FFF7DEFFE208A95C1B
:1006000004F0070C012303FA0CF3194205D1DBB205
:100610000B43AB54FFF7E2FF70BD21463046FFF7B6
:10062000B3FF0000054A1078431CDBB21370172B90
:1006300002D9134610221A70704700BFC00500206F
:100640004FF0E022936843F000539360704700003E
:10065000002305E0044A1A440021C2E88F1F013339
:100660001F2BF7D9704700BF80090020064B9B68FD
:10067000103043F82010BFF35F8F00230349C1E817
:100680008F3F82F31088704700ED00E08909002059
:100690000048704700E400E008B5FFF7F9FF0023C9
:1006A00004E04FF0803240F8042B01330C2BF8D9D2
:1006B00062B608BD08B50388DA0A1C2A06D15B05B4
:1006C0000BD45B15023300EB430008BD064B074A11
:1006D0004FF48E71064802F00FFC03F5FF1303F58B
:1006E000FF531F33EDE700BFBC3A00100C40001071
:1006F000D43A001008B5091A01F2FC7240F6FE73F4
:100700009A4208D8081F11F0010F04D1C0F34A0023
:1007100040F4604008BD034B034A4FF4877103481F
:1007200002F0EAFB0C3B001000400010D43A00102D
:1007300008B5091A04394B08090B0AD1C1F30A019B
:1007400041F4704101806FEA43536FEA5353438091
:1007500008BD034B034A4FF48B71034802F0CCFBF6
:100760003C3B0010DC3F0010D43A00104209064B1D
:1007700053F8222000F01F00012383401A4214BFC7
:1007800001200020704700BF00E100E03AB1064BB5
:1007900000F1600243F8221043F820107047203027
:1007A000014B43F82010704700E100E008B50A460D
:1007B00000F01F03012199404009FFF7E7FF08BD42
:1007C000024B9B68103053F82000704700ED00E0AA
:1007D00070B505460C46EFF3108672B60F4BD3E8A2
:1007E000CF1F01220029FAD1C3E8412F0029F6D1F9
:1007F000BFF35F8FFFF7E4FF094B984201D0A0429F
:1008000005D1324621462846FFF730FF70BD054B23
:10081000054AED21054802F06FFB00BF8909002061
:10082000110100104C3B00101C400010D43A001085
:100830002DE9F04706460D46EFF3108872B6504B8F
:10084000D3E8CF1F01220029FAD1C3E8412F0029A4
:10085000F6D1BFF35F8F4B4B9B6800F1100A53F842
:100860002A70494B9F4207D0AF4200F087803C4638
:10087000464BFB1A2F2B06D9424639463046FFF726
:10088000F5FEBDE8F087FFF771FF81460021304695
:10089000FFF78CFFBFF35F8FEFF30580C0B208B1A5
:1008A000824510D124F001040021A268954212D0A3
:1008B00094F90630002B0DDB03EB43032146334C48
:1008C00004EB8304F1E7324B324A40F20221324812
:1008D00002F012FB2146954249D194F90650002DB1
:1008E0002BDB05EB4502294B03EB82039A68A260E0
:1008F000DA79E27193F90630A371002B10DA4BF626
:100900000150A08005EB4502204B03EB8203234AF4
:1009100011789971157049463046FFF747FFABE7EC
:1009200005EB4503194800EB83000430FFF7C2FED6
:100930000146201DFFF7DEFEE3E798B981B1FF23F2
:100940008B714BF601538B80144A1378A3714AF6CE
:10095000AA230E49641A644163431B0D1370DAE73E
:10096000094FF1E70E49201DFFF7E2FED3E70D4BDB
:10097000084A4FF41171084802F0BEFA024F7BE7B3
:100980008909002000ED00E011010010C4050020DD
:10099000843B0010EC3F0010D43A0010880A00207D
:1009A000FE050020B83B001038B540F00104324B82
:1009B000E31A2F2B31D8EFF30581C9B2002933D0C8
:1009C000EFF3108E72B62D4BD3E8CF5F0122002DCE
:1009D000FAD1C3E8452F002DF6D1BFF35F8F4AF659
:1009E000AA230246244D521B524153431B0D4FFA7A
:1009F00083FC234B9B6853F82130A3421BD0002378
:100A0000032B32D803EB43011B4A02EB810292F91C
:100A10000620624520D00133F2E71A4B1A4A40F211
:100A20007F211A4802F068FA194B174A40F28221D6
:100A3000164802F061FA124B9B68164A43F82120CF
:100A4000154B1A78827183F800C000230B4AC2E864
:100A50008F3F8EF3108838BD074A02EB8101FF24D7
:100A60008C714BF601538B80EAE70C4B064A40F23F
:100A70009321064802F040FAC405002089090020AD
:100A800000ED00E0C03B0010C03F0010D43A001061
:100A9000E83B001011010010880A0020F43B001010
:100AA000014B0B44036070478009002010B50446D9
:100AB000FFF7B8FD01462046FFF7F2FFFF23237141
:100AC000BFF35F8F10BD10B50446FFF7ABFD0146C5
:100AD0002046FFF7E5FFFF23237100236371BFF377
:100AE0005F8F10BD10B50D4C09E00D4B0D4A1A215A
:100AF0000D4802F001FA2046FFF7D8FF08340B4BEF
:100B00009C4209D22368002BF5D0012BEDD1204661
:100B1000FFF7D9FF0834F2E710BD00BF44060020FC
:100B2000FC3B00105C4000101C3C00104C060020F8
:100B30000246EFF30583DBB2103B990804D003486B
:100B400003F00303136070470148F9E700800B408E
:100B500000000B4010B4846AA2EB040C0B1D50F88B
:100B600023301B1B9C4504D3046A01238B401C4289
:100B700002D1043140F821205DF8044B704741EA6E
:100B8000004070470D4B1A68EFF3108172B6D2E83F
:100B9000CFCF0120BCF1000FF9D1C2E84C0FBCF15E
:100BA000000FF4D1BFF35F8F1A680023C2E88F3FB4
:100BB00081F3108840BF002000217047FC0900200D
:100BC0002DE9F04F85B003A8FFF7B2FFA94B98427B
:100BD00014BF00230123039901EB8303A64A52F8B3
:100BE00023402378994206D1054601228A4000F528
:100BF00041535A6014E1A14BA14A9221A14802F04D
:100C00007BF9D4F8149006EB46074FEAC70A09EBC4
:100C1000C707D7F808B0D7F80C80284600F0B6FB15
:100C2000B0EB0B0061EB0803002BC0F20281B8F1BE
:100C3000000F60DB3B691A460093934B9A4230D019
:100C4000798889B2B4F90800FFF799FF7969009BA8
:100C50009847009001910099019A51EA02034AD005
:100C60001346002A29DABBEB010268EB0308BA60DD
:100C7000C7F80C8039F90A30002BC0F2DA80D4F8BA
:100C800014E003EB43010EEBC1018868C968101A38
:100C900068EB01010029C0F2CC80A4462CF8083F83
:100CA00015E07A69136900921046984718B3009AC4
:100CB0001368009353680193CDE7284600F066FB64
:100CC000009B1A18019B43EB0108D0E79C46BCF936
:100CD0000070002F0ADB07EB47030EEBC303986895
:100CE000D968101A68EB01010029EFDA29F80A70B7
:100CF000ACF800609DE039F90A3023812369EFF3F5
:100D0000108272B6D3E8CF0F01210028FAD1C3E8D0
:100D1000401F0028F6D1BFF35F8FB4F9023029F8E5
:100D20000A30668021690023C1E88F3F82F3108872
:100D30007FE02369EFF3108272B6D3E8CF0F012171
:100D40000028FAD1C3E8401F0028F6D1BFF35F8F17
:100D5000B4F804800FFA88F84FF6FF73A380216976
:100D60000023C1E88F3F82F3108815E01E46B6F9D4
:100D70000020002A0ADB02EB42030CEBC303986855
:100D8000D968381A6EEB01010029EFDAA6F8008065
:100D90003CF909802CF80920B8F1000F4EDBD4F89B
:100DA00014C008EB48034FEAC3090CEBC3039F6868
:100DB000D3F80CE004F10806D9E70023A37104F18D
:100DC000080CB4F9083010E04FF0FF384FF0FF394D
:100DD000C0E90289B4F90800984205D0ACF80020B7
:100DE000B4F90800C85323811346B3F1FF3F28D05C
:100DF000616903EB4302D70001EBC20031F93220F5
:100E0000468816F4004FDFD18446EDE7284600F00F
:100E1000BDFA3F1A66EB0106012F76F1000635DABE
:100E2000039A01239340EB63B4F90860002EBFF6E8
:100E3000E8AEA38813F4004F3FF47BAFA379002BF7
:100E4000BBD1B4F90830002B20DB626903EB43030C
:100E500002EBC3039F68DE68B6F1FF3F08BFB7F13E
:100E6000FF3FD3D03A46334603992846FFF772FE38
:100E7000CCE700BF00800B40DC090020A43C001040
:100E800088400010D03C0010C10B001040BF05B0DE
:100E9000BDE8F08FF8B504460D4611460A4B98425E
:100EA00010D000262E44012707FA05F525623046AA
:100EB000FFF78EFC39463046FFF778FC04F5015405
:100EC0002560F8BD0426EDE700800B40F8B5044628
:100ED0000E4617461D46C160FFF7A4FB164B0344A0
:100EE00023612770ABB263814FF050421278627079
:100EF0004FF6FF722281A280013B63804FF0000C0D
:100F000008E00CF1FF300CEB4C0E636923F83E0057
:100F10000CF1010CAC45F4D3084B9E4214BF0023E6
:100F2000012307EB8303064A42F82340054A39466A
:100F30003046FFF7AFFFF8BD8009002000800B406E
:100F4000DC090020C10B001008B5054B1B690BB173
:100F5000034808BD034B044A6521044801F0CCFF57
:100F60000C060020043D001070400010D03C001022
:100F7000F8B504469E460069EFF3108172B6D0E8DA
:100F8000CF6F0125002EFAD1C0E8465F002EF6D1C2
:100F9000BFF35F8FB4F90250666905EB4500C700E7
:100FA00006EBC000002D03DB36F907C0A4F802C031
:100FB0004FF0000C2369C3E88FCF81F3108865459B
:100FC00033DB06990161079941618260C0F80CE04A
:100FD000418889B20131C1F30E0101B9012141807B
:100FE0002846FFF7CCFD2369EFF3108272B6D3E8F1
:100FF000CFCF0121BCF1000FF9D1C3E84C1FBCF1E8
:10100000000FF4D1BFF35F8FA388F353A58021694C
:101010000023C1E88F3F82F31088E3682178012222
:101020008A4003F501535A60F8BD4FF0FF30FBE7EB
:1010300070B582B0064615461C469DF8203033B97F
:1010400000F0CEF9854264EB010100290ADB079B21
:101050000193069B00932A4623463046FFF788FFFC
:1010600002B070BD0020FBE7F0B585B005460C4628
:1010700016461F46FFF768FF9DF828300293019738
:1010800000962A462346FFF7D3FF05B0F0BD03467E
:101090004089B0EB214F31DD10B50A14586902EBDD
:1010A000420200EBC2001A69EFF3108C72B6D2E86C
:1010B000CF4F5FF0010E002CF9D1C2E844EF002CB5
:1010C000F5D1BFF35F8F428892B289B28A420FD0C6
:1010D000002019690022C1E88F2F8CF3108830B1ED
:1010E000DA681B780121994002F50153596010BD5F
:1010F00042F40042428001209871EAE700207047E4
:1011000010B50446FFF720FF2146FFF7C0FF10BDD2
:10111000F0B583B0EFF30583DBB2CBB905460F46DC
:10112000861F41F1FF34B04271EB040301D2002667
:10113000344600F055F9301A64EB0103012873F1CD
:10114000000308DA2846394600F05CF903B0F0BD28
:101150001C48FFF719FA002300931B4A304621462A
:10116000FFF782FF00281EDAECE7002300E00023EF
:10117000002BE7D1154B1A68EFF3108172B6D2E855
:10118000CFCF0120BCF1000FF9D1C2E84C0FBCF168
:10119000000FF4D1BFF35F8F1A680023C2E88F3FBE
:1011A00081F3108820BF0A4B5B6A9C42DFD8084954
:1011B000896AB14203D29C42D7D00123D8E70123E8
:1011C000D6E700BF283D0010850B0010FC09002069
:1011D00000000B4038B504460D4600F001F9201818
:1011E00045EB0101002902DBFFF792FF38BD4FF00C
:1011F000FF306FF00041F7E708B5C30E4101091A4F
:1012000063F100039B0043EA91738900091843F1DD
:101210000003DB00C80043EA5171FFF7DBFF08BDA4
:10122000F0B583B005460C46EFF30583DBB293B10E
:101230003C4B5B6A8B4209D33A4A926A824208D29B
:101240008B4201D0012002E0002000E0002003B02A
:10125000F0BD0120FBE7FFF777FEC7680678384648
:1012600000F094F82A1A64EB0101043657F826308E
:101270001B1A9A4271F1000112DB20BF294B5B6AF5
:101280009C4209D8274A926AAA4207D29C4201D0BE
:101290000120DCE70020DAE70020D8E70120D6E7CC
:1012A00000230093204A28462146FFF7DDFE002850
:1012B0000BDD1C4B5B6A9C421BD81A4A926AAA42FD
:1012C00028D29C4213D0012314E0164B5B6A9C4247
:1012D00009D8144A926AAA4207D29C4201D001203E
:1012E000B5E70020B3E70020B1E70120AFE7002316
:1012F00000E0002303B920BFFFF702FF094B5B6A40
:101300009C420BD8074A926AAA4209D29C4203D057
:1013100001209CE70123EDE7002098E7002096E7F5
:10132000012094E700000B40850B00100048704737
:1013300000000B4010B50A4B1B6923B10A21094874
:10134000FFF7AEFB10BDFFF7F1FF0446032100F0ED
:101350000BF81023032221460148FFF7B7FDEDE704
:101360000C060020FC09002010B5054A054C064B70
:10137000A04214BF1846581CFFF73AF910BD00BF31
:10138000783D001000800B40A80900200246436A07
:10139000906A1946536A9942FAD17047416A00E04F
:1013A000416A9942FCD300E0416A994202D1816AC4
:1013B0009142F9D3704770B5064614461D46FFF7B3
:1013C000E5FF021941EB0503824273EB010102D2F2
:1013D0004FF0FF3213463046FFF7E0FF70BD0000CC
:1013E00008B50248FFF7D2FF08BD00BF00000B4060
:1013F00008B502460B460248FFF7DDFF08BD00BFF7
:1014000000000B4008B502460B460248FFF7C6FF36
:1014100008BD00BF00000B40074B98420AD01A23BA
:1014200001229A40054B1A60054B9B6832EA030380
:10143000FAD170471B23F3E70080074000300240D9
:101440000000024038B5046B14F0010F01D12046B2
:1014500038BD00F5405340F201321A63436A856A91
:1014600005EB8315AD02062000F0EAF8044BA3FB60
:101470000030C00AB5FBF0F00021FFF7B9FFE6E746
:10148000757B2B8F70B505460C461646FFF7DAFFC5
:10149000EB6A5C40344005F58153DC60286370BD25
:1014A00070B505460C46062000F0CAF8C300B3FB31
:1014B000F4F30133DC0907D04FF6FE72944214D8DE
:1014C0002646C3F3450400E001266E62AC620022AA
:1014D00011462846FFF7D6FF062000F0B1F880003D
:1014E00004EB8614B0FBF4F070BD00244FF6FF76D9
:1014F000EBE7000049B10A22054B984214BF0020D7
:101500000120044B23F8102070474FF48072F3E75A
:1015100000800740800A002038B504460D460620AA
:1015200000F08EF8F8B1114B9C421DD01A22012315
:1015300093400F4A13602046FFF76EFF00212046BC
:10154000FFF7D8FF29462046FFF7AAFFE36A83F09A
:10155000700303F07E0304F58152D36040F201333F
:1015600023630323A36438BD1B22E0E70080074008
:101570000020024070B51646049D00EB400C4FEA77
:101580008C0C0CF1804C0CF5803CDCF80420AA4259
:1015900001D2CCF80450A0F1040E5FFA8EFEBEF129
:1015A000010F28D90CF540524FF4006414601E4A14
:1015B00052F8202042B11C4C6469B4FBF2F40134AF
:1015C00004EB4404033CFDD2DCF8002082EA46121E
:1015D00002F0E0020CF580542260BEF1010F16D932
:1015E0000CF500524FF400611160CCF804500E4A23
:1015F00042F8203070BD0129D4D10CF540520324AB
:101600001460DCF8082012F0010FFAD0DCE7DCF8F7
:1016100000204A4002F003022260DCF80840012268
:101620008A401442F9D0DBE7AC09002010B582B043
:101630004FF480340094FFF79DFF02B010BD00000E
:10164000014B53F820007047AC09002070B5049C92
:10165000344DB5FBF1FC344D1544344EB54237D80A
:10166000B2FBFCF5A5F1100EBEF5987F36D803F15C
:10167000FF3EBEF1060F37D804F1FF3EBEF1060F64
:1016800032D8BCEB121F35D8240344EA0344036864
:10169000002B35DB264B984242D00E2301229A4084
:1016A000244B1A6003F580531A60234B9B6832EA7F
:1016B0000303FAD10160856000F540520432212312
:1016C00013600368002BFCDAC4600823136070BD4C
:1016D0001A4B1B4A11211B4801F00EFC1A4B184AE9
:1016E0001921184801F008FC184B154A1C2115480F
:1016F00001F002FC164B124A2321124801F0FCFBB8
:10170000036803F03F038B42C4D18368C3F30B0328
:10171000AB42BFD1C36803F4EE23A342BAD1D6E7EC
:101720000F23BBE7001BB70080E84BD380F8A9323A
:101730000080054000200240000002409C3D001057
:10174000A0400010EC3D0010243E0010403E001070
:101750008C3E0010054A00EB400302EB8303596006
:1017600000EB4000800001231350704700801040C0
:1017700008B50023DB8A002242E800F212F4800F51
:1017800002D11021984708BD04219847FBE70000CB
:10179000034BD3F82838002BFAD0BFF35F8F704784
:1017A00000000E40002207E0054B13449B00BFF3EE
:1017B0005F8F002119600132072AF5D9704700BFF9
:1017C0000382031008B5FFF7EDFF08BD074B4FF488
:1017D0002A621A604FF48D72DA6003F50053044AEE
:1017E0001A60024B5B68002BFBDA704700800440F4
:1017F00000B0FA0010B5044602E054F8043B9847E4
:10180000014B9C42F9D310BDE03900107047000035
:1018100008B50248FFF7EEFF08BD00BFA039001071
:10182000064B074A1A6003F58053064A1A60064BB6
:101830009A68044B9343FAD1704700BF00200240DE
:101840007F3BEFEFF6FFF30300000240054BDB6C3C
:10185000B3F5004F00D07047034B4FF48022DA6499
:10186000F9E700BF00001150002011504FF0E022B6
:10187000D2F8881D034B0B43C2F8883D10EE3004AC
:10188000704700BF03033000054B6FF060421A60E1
:10189000044B9B68DB4333F06043F9D1704700BFD2
:1018A000003002400000024008B545F25320FFF727
:1018B0005FFF03460420984708BD08B545F2532052
:1018C000FFF756FF03460120984708BD08B5FEF70D
:1018D000BFFE08BD10B50C490C4A521A92101446AE
:1018E000442A28BF44229200094801F04FFF04E037
:1018F000084A074B43F824200134432CF8D9044A02
:10190000054B9A6010BD00BF0000001010010010D0
:10191000000000201101001000ED00E038B50420A7
:10192000FFF78EFE064BA3FB0035AD0C002404E050
:101930002946E0B2FFF70EFF0134052CF8DD38BD73
:1019400083DE1B4330B583B0264B0022C3F88420CE
:10195000FFF73CFF244B0122DA63224B5B6C012B27
:10196000FBD1214B03221A631E4B9B6B012BFBD136
:101970000224009405231D4A01211D48FFF766FE3D
:10198000052500952B461B4A01211B48FFF75EFEEB
:101990001A4B002221460420FFF748FE184C23462C
:1019A000002201212846FFF741FE164D2B4600225A
:1019B00011460820FFF73AFE2B4600221146092067
:1019C000FFF734FE2346002211460620FFF72EFEC5
:1019D0002346002211460720FFF728FEFFF79EFF4F
:1019E00003B030BD0000014000300140002F6859B5
:1019F00000000540008C864700800540001BB700B2
:101A000080D1F008006CDC0286B003B451FC0804FD
:101A1000CDE9020151FC0904CDE9040151EC0A04AD
:101A2000CDE9060103BCF047BDE800504EEC00C410
:101A3000BDE800504EEC01C4BDE800504EEC02C4BD
:101A400000BD000000B5FFF7DFFF02E010FE30F43C
:101A5000F8D441EC100443EC112400EE010410EE24
:101A6000010480EE200451EC1004704700B5FFF72C
:101A7000CBFF02E010FE30F4F8D441EC100443EC4C
:101A8000112400EE010410EE210480EE200451EC3C
:101A90003004704700B5FFF7B7FF02E010FE30F4E6
:101AA000F8D410B541EC100443EC112451EC0404BB
:101AB00053EC0524A0FB024C5FF0000EE0FB03CECC
:101AC000E1FB02CE4CEC20440024E1FB03E444ECB7
:101AD00030E480EE200451EC5004BDE81040704723
:101AE00000B5FFF791FF02E010FE30F4F8D441ECAE
:101AF000100443EC112451EC2104A0FB01126FEA05
:101B0000820252FB100052FB12F252FB1000A0EBBB
:101B1000D07C53EC04245CFB13F153EC1524A1FBA3
:101B2000022001FB030053EC4424A2EB000050FB15
:101B30001CF24FEA111312EB017043EBE27140EA21
:101B4000515020EA915020F0070053EC7524A0FB7F
:101B5000023C53EC752400FB03CC01FB02CC53EC9C
:101B60000424ACEB824C40EA5C70A0F1010041EC33
:101B7000400480EE200451EC7004704700B5FFF77C
:101B800043FF02E010FE30F4F8D440EC700400EEA5
:101B9000010410EE210480EE200451EC3004704763
:101BA00000B5FFF731FF02E010FE30F4F8D440EC4E
:101BB000600400EE010410EE210480EE200451ECDC
:101BC0003004704700B5FFF71FFF02E010FE30F44D
:101BD000F8D441EC800400EE010410EE010480EE24
:101BE000400410EE1304704700B5FFF70DFF02E04C
:101BF00010FE30F4F8D441EC800400EE010410EE45
:101C0000010480EE400410EE3304704700B5FFF786
:101C1000FBFE02E010FE30F4F8D441EC100443EC7B
:101C2000112400EE010410EE3004C0F30070704780
:101C300000B5FFF7E9FE02E010FE30F4F8D443EC03
:101C4000102441EC110400EE010410EE30F48CBFBE
:101C500001200020704700BF00B5FFF7D5FE02E06D
:101C600010FE30F4F8D443EC102441EC110400EEE3
:101C7000010410EE30F42CBF01200020704700BF9B
:101C800000B5FFF7C1FE02E010FE30F4F8D441ECDD
:101C9000100443EC112400EE010410EE30F42CBFCC
:101CA00001200020704700BF00B5FFF7ADFE02E045
:101CB00010FE30F4F8D441EC100443EC112400EE93
:101CC000010410EE30F48CBF01200020704700BFEB
:101CD0009A4200D288547047704720B108B50A680C
:101CE0004968904708BD70470146002008E000EBB6
:101CF0008000531C0B60137803EB4003A3F130000A
:101D00000A681378303BDBB2092BF0D970472DE914
:101D1000F04F83B005460E4693461F46DDF830A0CF
:101D20000D9CDDF838900F9B13F0030F19D1A046DE
:101D30000192C84509D202F1010B3B4631462020F1
:101D4000A84708F101085A46F3E7DDF804B008E0B7
:101D5000013C02F101083B4631461AF80400A8474D
:101D60004246002CF4D10F9B13F0020F03D1104612
:101D700003B0BDE8F08FA2EB0B034B45F7D2541C28
:101D80003B4631462020A8472246F4E72DE9F043A0
:101D900085B099460C9D0D9C9DF83880DDF840E09B
:101DA000119F129E16F0020F21D17FB116F0010F84
:101DB0000CD0B8F1000F02D116F00C0F06D0013F85
:101DC00004E04FF0300C05F804C00134744501D232
:101DD0001F2CF6D916F0010F09D0BC4207D21F2CD8
:101DE00005D84FF0300C05F804C00134F2E716F0C6
:101DF000100F14D016F4806F04D11CB1744522D09A
:101E0000BC4220D00F9B102B36D00F9B022B3ED014
:101E10001F2C0ED84FF0300C05F804C001341F2CD5
:101E200007D8B8F1000F3AD04FF02D0C05F804C0D8
:101E3000013403960297019400954B46FFF767FF24
:101E400005B0BDE8F083B4F1010C13D00F9B102B4B
:101E50000ED064460F9B102BD7D116F0200FD4D094
:101E60001F2CD2D84FF0580C05F804C00134CFE72E
:101E7000023CC7E76446C5E716F0200FEAD11F2CE5
:101E8000E8D84FF0780C05F804C00134C0E71F2CE7
:101E9000CFD84FF0620C05F804C00134B8E716F053
:101EA000040F05D04FF02B0C05F804C00134C0E737
:101EB00016F0080FBDD04FF0200C05F804C0013417
:101EC000B7E7F0B591B0169C189D1B9E0CB926F093
:101ED000100616F4806E16D064B34FF0000E12E0B8
:101EE0000CF1300C5FFA8CFC0EF101070EF1400E84
:101EF000EE440EF820CCB4FBF5FCAC421BD31F2FF4
:101F000019D8BE466446B4FBF5FC05FB1C4C5FFAD1
:101F10008CFCBCF1090FE3D916F0200F08D0412743
:101F2000BC445FFA8CFCACF10A0C5FFA8CFCDBE77A
:101F30006127F5E7274606961A9C0594199C049498
:101F400003959DF85C400294019708AC0094FFF75C
:101F50001DFF11B0F0BD2DE9F04F95B009900A9129
:101F60000B929846DDF878B0DDF87C90229D239F97
:101F7000269E5BEA090201D126F0100616F4806461
:101F80001ED05BEA09022FD0002419E03032D3B210
:101F900004F1010A04F150020DEB020404F8203CA4
:101FA0002A463B465846494601F0EEFCAB4579EBE4
:101FB00007091BD3BAF11F0F18D854468346894628
:101FC0002A463B465846494601F0DEFCD2B2092A71
:101FD000DCD916F0200F05D041231344DBB20A3BB5
:101FE000DBB2D5E76123F8E74FF0000A0696259BA0
:101FF0000593249B049303959DF880300293CDF8BC
:1020000004A00CAB009343460B9A0A990998FFF77A
:10201000BDFE15B0BDE8F08F2DE9F04F91B004463C
:102020000D4617461E46DDE91A2310461946FFF7EE
:10203000F1FD002840F0ED804FF0FF32AE4BDDE9BE
:102040001A01FFF735FE002840F0E3804FF0FF3221
:102050006FF48013DDE91A01FFF7EEFD002840F070
:10206000D88000220023DDE91A01FFF7E5FD0028F2
:1020700040F0E2809DED1A7B8DED067B1E9B13F4F4
:1020800080630D9301D106231C93DDE906231046DE
:102090001946CDE9080152EA030100F0D880C3F3E4
:1020A0000A50C3F31303904643F07F5949F4401993
:1020B000A0F2FF30FFF766FD7DA3D3E90023FFF711
:1020C000EDFC7DA3D3E90023FFF7C0FC82468B46DD
:1020D00000228A4B40464946FFF7CCFC78A3D3E95F
:1020E0000023FFF7DBFC02460B4650465946FFF73C
:1020F000ADFCFFF76BFD8246FFF744FD8046894645
:1021000071A3D3E90023FFF7C9FC00227C4BFFF742
:102110009DFCFFF75BFD83466DA3D3E9002340469A
:102120004946FFF7BBFC804689465846FFF72AFD23
:1021300069A3D3E90023FFF7B1FC02460B464046F2
:102140004946FFF797FC8046894602460B46FFF753
:10215000A5FCCDE90A010BF2FF3B00210022CDE9ED
:1021600008124FEA0B5309930023089342464B464B
:1021700040464946FFF76AFCCDE90E0142464B4610
:1021800000204FF08041FFF775FC80468946002211
:102190005C4BDDE90A01FFF7A7FC00225A4BFFF771
:1021A00055FC02460B46DDE90A01FFF79DFC0022C3
:1021B000564BFFF74BFC02460B46DDE90A01FFF7E1
:1021C00093FC02460B4640464946FFF73FFC024659
:1021D0000B46DDE90E01FFF787FC00224C4BFFF7B1
:1021E00035FCDDE90823FFF759FC80468946CDE937
:1021F0000889DDE90623FFF75BFD50B30AF1FF3ADA
:102200000022414B40464946FFF76EFCCDE90801EC
:102210001FE01E9B04931D9B03931C9B02939DED4B
:102220001A7B8DED007B33463A462946204600F066
:1022300003F911B0BDE8F08F9FED297B8DED067B92
:102240001A9B06931B9B03F10043079316E74FF07D
:10225000000A0AF16303C62B27D84FF004081E9B1F
:1022600013F4006F5FD0DDE9081213460B4313D05F
:102270001DA3D3E90023DDE90601FFF705FD0028D2
:1022800000F0B4801AA3D3E90023DDE90601FFF7CB
:10229000D3FC002800F0AA801C9B53453ADDA3EB39
:1022A0000A0A0AF1FF331C9336E04FF00508D6E71F
:1022B000FB799F501344D33FB3C8608B288AC63F35
:1022C00061436F63A787D23F71A379094F930A4097
:1022D0001655B5BBB16B0240EF39FAFE422EE63F10
:1022E00000000000000000002D431CEBE2361A3F06
:1022F0000000000080842E41FFFFEF7F0000F83FC8
:102300000000E03F00002C40000024400000184086
:102310000000F03F00231C931E9B43F480631E9338
:102320004FF00008C2461D9B984569D2A3EB0809EF
:102330001E9B13F0020B04D0B8F1000F01D04FF038
:102340000009BAF1000F07D0DDE90823DDE9060135
:10235000FFF7CAFBCDE9060100220023DDE91A01DF
:10236000FFF76AFC00284ED11E9B23F40063049300
:10237000CDF80C901C9B02939DED067B8DED007BB0
:1023800033463A462946204600F056F8B8F1000F89
:102390003FF44FAF1E9B13F0200F3CD04FF0450C85
:1023A00000F101093346024629466046A0478AEA01
:1023B000EA72A2EBEA720523059308F1FF33049356
:1023C000002303930A2302934FEADA7301930092E6
:1023D00033464A4629462046FFF773FDBBF1000FFE
:1023E0003FF427AF0246DDF874901EE01C9B002BE3
:1023F00099D00D9B002B96D01C9B013B1C9392E720
:102400004FF0000994E7DDE90601024601F10043BF
:10241000CDE90623A8E74FF0650CC1E702F10108FA
:10242000334629462020A0474246D31B4B45F5D3CF
:102430001046FEE6000000002DE9F04F2DED028B66
:1024400095B007900A9192469B46DDE92089229D2E
:1024500042464B4640464946FFF7DCFB002835D153
:102460004FF0FF326FF4801340464946FFF7E4FB1C
:1024700000283AD14FF0FF329F4B40464946FFF7C4
:1024800017FC002840D198A3D3E9002340464946D1
:10249000FFF70EFC00284FD195A3D3E90023404657
:1024A0004946FFF7C9FB002846D1002200234046D9
:1024B0004946FFF7C1FB00284CD100230B93249B16
:1024C00013F4806F00F0B780002456E0249B039340
:1024D000239B029303230193884B00935B46524650
:1024E0000A990798FFF713FC37E1249B0393239B7A
:1024F000029304230193824B00935B4652460A9950
:102500000798FFF704FC28E1249B13F004030FD085
:102510007C4A7BB10423249903912399029101936E
:1025200000925B4652460A990798FFF7F0FB14E1C8
:10253000754AEEE70323EEE7249B0493239B039362
:102540000295CDE900895B4652460A990798FFF744
:1025500063FD02E142464B4600200021FFF78AFA64
:102560008046894601230B93A9E704F150036B448D
:10257000302203F8202C013D01341F2C01D8092DF5
:10258000F3D840464946FFF721FB0646FFF7FAFA23
:1025900002460B4640464946FFF76CFA5B4B03EB9D
:1025A000C50393ED008B53EC182BFFF777FA024627
:1025B0000B46CDE90823FFF71BFB0746FFF7F4FAAC
:1025C00002460B46DDE90801FFF754FA02460B46C6
:1025D000CDE9082300224E4BFFF76AFB68B30137B1
:1025E0003846FFF7E1FA02460B4651EC180BFFF7AD
:1025F00037FB08B1013600276DBB3046FFF7C2FA42
:1026000002460B4640464946FFF734FA07468846DD
:1026100000223F4BFFF710FB00284CD100223C4B1F
:1026200038464146FFF744FB002844D116F0010F1D
:1026300041D001363FE0062546E70022344BDDE974
:102640000801FFF7F9FA0028D6D117B117F0010FEA
:10265000D2D00137D0E71F2C17D8013D2D4BA3FB5B
:102660000723DB08194603EB8303A7EB4303621C34
:10267000303304F150000DEB000404F8203C092F26
:1026800002D90F461446E6E714461F2C0AD86B1EE3
:1026900045B104F150026A44302102F8201C1D4665
:1026A0000134F2E71F2C06D804F150036B442E22AC
:1026B00003F8202C01341F2C31D8174A82FB063234
:1026C000F317C3EBA2031A4603EB8303A6EB430302
:1026D000611C303304F150000DEB000404F8203C81
:1026E0001646DAB10C46E6E70000000065CDCD41A4
:1026F0000000000065CDCDC1FFFFEF7FF03E001070
:10270000F43E0010E43E0010EC3E001000410010CA
:102710000000E03FCDCCCCCC676666660C46249BBF
:1027200003F00303012B1DD01F2C09D80B9B002B9A
:1027300035D004F150036B442D2203F8202C0134D2
:10274000249B0393239B029301940CAB00935B4661
:1027500052460A990798FFF7DAFA15B0BDEC028BDA
:10276000BDE8F08F239BB3B10B9B1BB9249B13F0E7
:102770000C0F12D0239B013B2393194606E004F172
:1027800050036B44302203F8202C01348C42CBD20E
:102790001F2CF4D9C8E72399F8E72399F6E7249B7F
:1027A00013F0040F07D004F150036B442B2203F8FD
:1027B000202C0134C4E7249B13F0080FC0D004F18F
:1027C00050036B44202203F8202C0134B8E700BFEB
:1027D0002DE9F04F91B0804617460F9389460029A6
:1027E00000F04B8300260F9B1878002800F04883E8
:1027F000252809D0741C3B4632464946C0470F9BEA
:1028000001330F932646EEE701330F9300251FE0B7
:1028100045F0010501320F92012318E045F0020551
:1028200001320F92012312E045F0040501320F92AC
:1028300001230CE045F0080501320F92012306E068
:1028400045F0100501320F92012300E000234BB345
:102850000F9A1378203B102BF8D801A151F823F0E0
:10286000352800104D2800104D2800104128001078
:102870004D2800104D2800104D2800104D28001044
:102880004D2800104D2800104D2800102928001058
:102890004D2800101D2800104D2800104D28001054
:1028A000112800100B930F9B1A78A2F13003DBB2B2
:1028B000092B18D92A2A1BD0DDF82CB00F9B1A78C7
:1028C0002E2A25D00F9A1378683B122B5CD8DFE8AC
:1028D00003F0495BAC5B3B5B5B5B5B5B5B5B575BF0
:1028E0005B5B5B5BB1000FA8FFF7FEF98346E5E792
:1028F0001A9B1A1D1A921B68002B04DB9B460F9B28
:1029000001330F93DAE745F00205C3F1000BF6E758
:1029100045F480655A1C0F925A78A2F13003DBB25D
:10292000092B0CD92A2ACDD11A9B1A1D1A921C6880
:1029300024EAE4730B930F9B01330F93C2E70FA8B4
:10294000FFF7D2F90B90BDE745F48071531C0F934C
:1029500053786C2B01D00D4616E045F440750232D9
:102960000F9211E045F08001531C0F935378682BB0
:1029700001D00D4608E045F0C00502320F9203E099
:1029800045F4807501320F920F9B1878672856D84E
:102990002528C0F06882A0F12503422B00F2638253
:1029A000DFE813F056026102610261026102610216
:1029B00061026102610261026102610261026102FF
:1029C00061026102610261026102610261026102EF
:1029D00061026102610261026102610261026102DF
:1029E000610261028801680188016102610261027D
:1029F00061026102610261026102610261026102BF
:102A000061026102610261026102710061026102A0
:102A10006102610261026102610261026102710090
:102A2000AF01710088016801880145F40075013229
:102A30000F92A9E745F4807501320F92A4E7782838
:102A400000F211826928C0F00E82A0F16902D2B2B0
:102A50000123934049F24102134214D113F0800F35
:102A600040F0DB8113F4806F00F0FD811A9B1A1D8A
:102A70001A92D3F800A00B9B002B40F090814FF0EE
:102A8000FF32534671E16F280CD005D858283CD04E
:102A9000622803D1022306E0782838D025F01005FB
:102AA0000A2300E00823582833D0692803D064287B
:102AB00001D025F00C0515F4806F01D025F001053B
:102AC000692829D0642827D015F4007F40F094802D
:102AD00015F4807F40F0AC8015F0400F00F0BD8011
:102AE0001A9A111D1A9112780595CDF810B00B990C
:102AF000039102930023019300923B4632464946DC
:102B00004046FFF7DEF9064627E01023CBE7102307
:102B1000C9E745F02005C8E715F4007F21D115F479
:102B2000807F42D115F0400F58D01A9A111D1A918A
:102B3000127882EAE271A1EBE2710595CDF810B04E
:102B40000B9803900293D20F019200913B463246BC
:102B500049464046FFF7B5F906460F9B01330F93F0
:102B600041E61A9A073222F0070202F108011A918F
:102B7000516812680846002913DB0895CDF81CB08F
:102B80000B9C0694049300230593C90F02910092B5
:102B900001903B46324649464046FFF7DCF906467F
:102BA000DBE7524261EB4100E7E71A9A111D1A91E7
:102BB000126882EAE271A1EBE2710595CDF810B0DE
:102BC0000B9803900293D20F019200913B4632463C
:102BD00049464046FFF775F90646BEE715F0800FF7
:102BE00005D01A9A111D1A91B2F90020A1E71A9A7C
:102BF000111D1A9112689CE71A9A073222F00702F7
:102C000002F108011A910895CDF81CB00B990691B4
:102C10000021049305910291D2E90023CDE900231C
:102C20003B46324649464046FFF795F9064694E74B
:102C30001A9A111D1A910595CDF810B00B990391B0
:102C4000029300230193136800933B4632464946A2
:102C50004046FFF736F906467FE715F0800F04D0AF
:102C60001A9A111D1A9112883EE71A9A111D1A918B
:102C7000126839E746281AD01A9B073323F0070356
:102C800003F108021A920495CDF80CB00B9A029247
:102C9000D3E90023CDE900233B463246494640466E
:102CA000FFF7CAFB06460F9B01330F939BE545F0E8
:102CB0002005E1E7672801D0472801D145F40065E8
:102CC000452801D0472801D145F020051A9B07333C
:102CD00023F0070303F108021A920495CDF80CB013
:102CE0000B9A0292D3E90023CDE900233B463246FA
:102CF00049464046FFF790F906460F9B01330F9374
:102D000071E515F002051DD001241A98031D1A93D0
:102D100006F1010A3B46324649460078C047A5B94C
:102D20000F9B01330F9356465DE502F1010A3B46C6
:102D300049462020C047234652465C1C9B45F4D898
:102D40001646E2E701233246F7E7524606E0561CF4
:102D50003B4649462020C0472C463246651CA345C9
:102D6000F5D89246DCE701330A46197811B1511EB5
:102D7000002AF8D1A3EB0A0315F480620C9203D069
:102D80000B9A934228BF134615F0020409D00D9404
:102D9000CDF838B00B9D32460C9E9B461FE00B9A37
:102DA0006FE63246264606E0541C3B464946202044
:102DB000C0472B4622465D1C9B45F5D834462B4622
:102DC0000D94CDF838B00B9D0C9E9B4607E01D4638
:102DD0000AF1010A541C3B464946C04722469AF86C
:102DE000000020B1002EF3D06B1E002DEFD10D9C02
:102DF00016465B46DDF838B054B90F9B01330F938C
:102E0000F1E4551C3B4649462020C04723462A464C
:102E10005C1C9B45F5D81646EFE745F021051A9B4B
:102E20001A1D1A921B680595082204920B9A0392A8
:102E3000102202920022019200933B4632464946FC
:102E40004046FFF73EF806460F9B01330F93CAE456
:102E5000741C3B46324649462520C0470F9B013330
:102E60000F932646BFE4741C3B4632464946C04792
:102E70000F9B01330F932646B5E4DFF82080B1E4C1
:102E8000BE4208D37A1E3B4649460020C047304622
:102E900011B0BDE8F08F3246F5E700BFD91C001035
:102EA0000CB410B584B00A4606AC54F8043B039445
:102EB000009401460348FFF78BFC04B0BDE81040C6
:102EC00002B07047D11C001000B585B0029003918C
:102ED000009313464FF0FF3202A90348FFF778FC36
:102EE00005B05DF804FB00BFDB1C001000BEFDE771
:102EF00008B5FFF7FBFF000000B583B08C4619460C
:102F00005AB11446064B01940093634602460548A5
:102F100000F052F90120FFF7E9FF034B1C46F2E7EE
:102F2000FC3E00100C3F0010083F001010B5EFF3FE
:102F30000583DBB203B100BEFEF76AFC044C02E07D
:102F400054F8043B9847034B9C42F9D310BD00BF93
:102F5000E0390010E839001008B5034608461B6840
:102F60001146984708BD0000F8B507460D461646BD
:102F7000437D13B1002420460CE003681146284627
:102F800098472EE03B7D10E03B68022115489847AA
:102F9000601C0134B44214DA002CF3DD2B1913F851
:102FA000013C0D2B14BF002301232A5D0A2AF0D116
:102FB000002BEED1A042E7DA3B68211A284498475B
:102FC000E2E7B04203DA3B68311A28449847002E02
:102FD00007DD354415F8013C0D2B14BF00230123F8
:102FE0003B75F8BD5041001038B50368BBB10546CC
:102FF0000B4B1C6806E0294651F8042B2046FFF7CE
:10300000B3FF24694CB12368002BFAD0054B1B6831
:10301000002BF0D0A342F4D1EDE700232B6038BDA4
:10302000D4090020D809002038B505460C460B68A5
:10303000802B05D023685A1C22601C44257138BDA2
:103040000846FFF7D1FFF5E708B5FEF7C9F9074ACB
:10305000821841F10003002B03DB054800F09CFCC3
:1030600008BD4FF0FF326FF00043F6E740420F001B
:103070004406002008B5024800F08AFC08BD00BFE5
:10308000440600202DE9F04383B006460D469046E5
:103090001C46FFF7D9FF8146B5F1FF3F04D044B18C
:1030A000174F184B1C6807E0304600F0EBFB054655
:1030B000F5E7154FF5E72469BCB12368002BFAD07A
:1030C000124B1B680BB1A342F5D12A46314620466C
:1030D000B847B8F1000FEED00A238DF8073001226F
:1030E0000DF107012046B847E5E7B9F1000F03D11C
:1030F000284603B0BDE8F083FFF7BCFFF8E700BF48
:10310000692F0010D4090020592F0010D809002081
:10311000084A01E003F1100213683BB18342F9D180
:1031200031B90369136000230361704701B1106076
:10313000704700BFD409002010B5054B1C6801E0A2
:10314000984724691CB16368002BF9D1F9E710BDD9
:10315000D409002008B500F04DF9012008BD38B5AC
:10316000054600F08FFB044601231A460146284617
:10317000FFF788FFFFF7E0FF204638BD70B5A2B02B
:1031800004460E46FFF760FF0546002301933346D1
:10319000224601A90748FFF797FE044601A8FFF75A
:1031A00023FFFFF7C9FF15B9204622B070BDFFF716
:1031B00061FFF9E7293000100FB400B583B004A90E
:1031C00051F8040B0191FFF7D9FF03B05DF804EB50
:1031D00004B0704782B08C46184B984214BF00234D
:1031E0000123174A32F913308B4205D08DF807C0FE
:1031F00000210DF107021CE00D238DF8073000219E
:103200000DF107020029F1D1836913F0200FFBD1E2
:10321000134613F8012B026001311A46F2E7836965
:1032200013F0200FFBD1134613F8012B026001317C
:103230001A460029F3D002B0704700BF0080074053
:10324000800A002010B483B000210DF1070209E0CC
:10325000836913F0100FFBD10468134603F8014B88
:1032600001311A460029F3D09DF8070003B05DF83C
:10327000044B704770B506460D46002405E0315DED
:10328000034B1868FFF7A6FF0134AC42F7DB70BDB3
:10329000840A0020F8B507460E46002404E0651CA9
:1032A000FFF7D0FF38552C46B44205DA0C4B1868AE
:1032B000836913F0100FF2D00A4B1B684BB1084B17
:1032C0001B6850229A635A6B02F0380203F581534F
:1032D0005A610CB12046F8BD6FF00204FAE700BF56
:1032E000840A0020A009002008B5054B1B6833B1F3
:1032F000044A126800219163034A1068984708BD88
:10330000A0090020840A0020A4090020034B1A68A9
:10331000936913F0080FFBD1704700BF840A0020A7
:1033200038B51B4B1B681B4A934205D02124E0B1E2
:10333000194B1B6813B138BD2224F8E7164B1860EF
:10334000164B196016492046FDF742FA0121204626
:10335000FDF72CFA0E4B1B6850229A635A6B02F051
:10336000380203F581535A61E5E70B4A1268002AD7
:10337000E1D000259D6329462046FDF717FA08494C
:103380002046FDF755FA044B1D60044B1D60D2E743
:10339000840A002000800740A0090020A409002022
:1033A000E932001038B50D461C46104B1860101E4F
:1033B00005DB10F0020F15D00B21FDF7ADF8002C46
:1033C00006DB14F0020F0FD00B212046FDF7A4F806
:1033D0002946064B1868FEF79FF801210448FFF7BD
:1033E00097FE38BD0221E8E70221EEE7840A0020BB
:1033F0002406002008B5074B1B78074B1B78074BAA
:103400001B78012300224FF4E1310548FFF7CAFF82
:1034100008BD00BFB0410010AC410010A841001031
:1034200000000740074B83420AD0052301229A403F
:10343000054B1A60054B9B6832EA0303FAD17047CB
:103440000423F3E73C060020003002400000024065
:103450002DE9F04F85B00746924601939DF838203C
:103460000F9EDDF8408003680025DD660368596023
:1034700003680121D966A94602952C46039227E0EC
:103480003B79002B32D0012330E0039A0AB10022AD
:1034900030E001222EE000214046B0470543EDB266
:1034A00038B93B685B6B13F0100F02D1002EF2D1DC
:1034B000F6E7044640B93B68D3F88020029212BB7D
:1034C000002D32D1CB4521D0002D37D109F1010992
:1034D000019B994532DA019B03F1FF3B16B10121B3
:1034E0004046B047B9F1000FCAD000239B02CB453C
:1034F000CBD0002243EA42231AF8011B3A680B435F
:1035000013612046D2E75B6D01250EE0039B002B83
:10351000DAD10AE000214046B0470543EDB238B9A0
:103520003B685B6B13F4007F02D1002EF2D1F6E70B
:1035300004460028C8D13B681B6EC5E7039A45B115
:1035400064B9029B6BB113F0010F0DD113F0080F9A
:103550000DD03A71484605B0BDE8F08F6FF0010913
:10356000F7E74FF0FF39F4E74FF0FF39F1E74FF09D
:10357000FF39EEE72DE9F04F83B0054600929A46F9
:103580009DF8303001930D9FDDF8388003680024EA
:10359000DC660368596003680122DA66A1462646A4
:1035A000D1453FDA0AF1FF3B17B101214046B84748
:1035B0002B685A6F102AFBD0B9F1000F0AD00022F5
:1035C0009202CB450BD0002142EA412242F48072A4
:1035D0001A6117E02A79002AF2D00122F0E7019956
:1035E00009B10021F0E70121EEE75B6D01242FB165
:1035F00000214046B84706460443E4B294B92B681C
:103600009A6F3AB92B68D3F880205A6B12F0400FAA
:10361000EDD0EAE71A69009B03F8012B09F10109D3
:103620000093BDE714B13EB16FF00109019B2B710E
:10363000484603B0BDE8F08F4FF0FF39F6E70000D1
:10364000F8B504460D460520FDF7FAFF00EB5502DC
:10365000B2FBF5F202EB420C244BA3FB0C139F08C8
:10366000A2EB9306224B9D4221D800EB4003214957
:10367000A1FB03139B0D0133B91E99421FD321688F
:103680000025CD6621680D6885F0040505F0060566
:1036900001F580510D602168CE6121680F62BCF197
:1036A0004F0F12D91149A1FB0C5189090EE000EB13
:1036B00040031149A1FB0313DB0D0133DCE70F4B82
:1036C0000F4A5D210F48FFF717FC01212568C5F857
:1036D000A0102168CD6F6B409BB201F58351CB6187
:1036E00023680121D966B0FBF2F0F8BDCDCCCCCC7B
:1036F0003F420F006BCA5F6B893BE655683F001085
:1037000070410010883F001038B504460D46114B3B
:1037100098421CD00522012393400F4A1360204693
:10372000FFF780FE002323712268D366226840F2EF
:10373000651111602268D3632268936323680322B2
:10374000C3F8882029462046FFF77AFF38BD0422B7
:10375000E1E700BF3C0600200020024010B584B025
:103760000024029401949DF818400094FFF770FE25
:1037700004B010BD10B584B00024029401949DF8EB
:1037800018400094FFF7F6FE04B010BD844641EAED
:10379000000313F0030349D1403A23D30B680360BD
:1037A0004B6843608B688360CB68C3600B690361BF
:1037B0004B6943618B698361CB69C3610B6A0362A7
:1037C0004B6A43628B6A8362CB6AC3620B6B03638F
:1037D0004B6B43638B6B8363CB6BC3634030403174
:1037E000403ADBD230320BD30B6803604B68436046
:1037F0008B688360CB68C36010301031103AF3D20D
:103800000C3205D351F8043B40F8043B043AF9D29A
:10381000043208D0D2071CBF11F8013B00F8013B6D
:1038200001D30B8803806046704700BF082A13D37A
:103830008B07B1D010F00303AED0C3F10403D21A4A
:10384000DB071CBF11F8013B00F8013BA4D331F8A2
:10385000023B20F8023B9FE7043AD9D3013A11F822
:10386000013B00F8013BF9D20B7803704B784370B1
:103870008B78837060467047002301461A461846CD
:1038800000F042B820F0030110F00300C0F1000086
:1038900051F8043B00F1040C4FEACC0C6FF000022D
:1038A0001CBF22FA0CF213434FF0010C4CEA0C2C13
:1038B0004CEA0C4CA3EB0C0222EA030212EACC12F3
:1038C00004BF51F8043B0430F4D0C2F1000102EA15
:1038D0000102B2FA82F2C2F11F0200EBD20070477D
:1038E00038B5074D074C2C1BA41005D0013C55F8EA
:1038F000043D9847002CF9D1BDE8384000F040B8AD
:10390000E8390010E839001070B4164D2C681CB36B
:1039100065681F2D23DC38B96B1C002002356360FD
:1039200044F8251070BC704704EB850C0228CCF8D5
:1039300088204FF00102D4F8886102FA05F246EAC5
:103940000206C4F88861CCF80831E5D1D4F88C318E
:103950001343C4F88C31DFE7034C2C60D8E74FF0F9
:10396000FF30DFE77C090020EC070020024B13B199
:103970000248FFF781BF704700000000E1380010E7
:10398000F8B500BF000000005FF800F079020020E9
:103990005FF800F0210200205FF800F0ED01002048
:1039A000A9180010211800104D180010451900101A
:1039B00089180010C5170010CD18001091170010BD
:1039C000E50A0010D5180010351300100D1800106E
:1039D000BB1800106D180010410600109906001069
:0839E0006D39001055020010C2
:1039E8004572726F723A2049434D2D343236383859
:1039F8002D50206E6F7420666F756E642E20526590
:103A080061642057484F5F414D5F493A203078251F
:103A18003032580D0A000000496E697469616C699A
:103A28007A696E672049434D2D34323638382D5027
:103A3800207669612055415254312E2E2E0D0A00F0
:103A480049434D2D34323638382D5020496E69742B
:103A580069616C697A65642053756363657373661D
:103A6800756C6C792E0D0A00416363656C3A2058B9
:103A78003D2536642020593D25366420205A3D25B1
:103A8800366420207C20204779726F3A20583D25E3
:103A980036642020593D25366420205A3D25366459
:103AA8000D0A00000A2A2A2A2050414E4943202A9A
:103AB8002A2A0A0030783163203D3D20282A696E81
:103AC8007374293E3E313175000000002F686F6D18
:103AD800652F7069636F322F7069636F2D73646B24
:103AE8002F7372632F7270325F636F6D6D6F6E2FFD
:103AF80068617264776172655F6972712F6972714A
:103B08002E63000064656C7461203E3D202D3230C8
:103B180034382026262064656C7461203C3D2032B0
:103B280030343620262620212864656C74612026CE
:103B380020312900212864656C7461203E3E2031C3
:103B48003175290063757272656E74203D3D205F82
:103B58005F756E68616E646C65645F757365725FCE
:103B6800697271207C7C2063757272656E74203D69
:103B78003D2068616E646C657200000021657863A1
:103B8800657074696F6E207C7C20657863657074DD
:103B9800696F6E203D3D206E756D202B2056544177
:103BA800424C455F46495253545F49525100000008
:103BB80066616C736500000069735F7368617265A4
:103BC800645F6972715F7261775F68616E646C656A
:103BD8007228736C6F745F68616E646C657229001B
:103BE800657863657074696F6E000000666F756E46
:103BF8006400000031203D3D202875696E747074A2
:103C0800725F74296C2D3E7370696E5F6C6F636BA5
:103C1800000000002F686F6D652F7069636F322F89
:103C28007069636F2D73646B2F7372632F636F6D8D
:103C38006D6F6E2F7069636F5F73796E632F6D752B
:103C48007465782E63000000746F74616C00000066
:103C58006D74782D3E636F72652E7370696E5F6C3C
:103C68006F636B006C6F636B5F69735F6F776E6513
:103C7800725F69645F76616C6964286D74782D3E43
:103C88006F776E65722900006D74782D3E656E74CD
:103C980065725F636F756E7400000000706F6F6C03
:103CA8002D3E74696D65725F616C61726D5F6E75D2
:103CB8006D203D3D2074696D65725F616C61726D48
:103CC8005F6E756D000000002F686F6D652F70695D
:103CD800636F322F7069636F2D73646B2F73726318
:103CE8002F636F6D6D6F6E2F7069636F5F74696D91
:103CF800652F74696D652E63000000006465666158
:103D0800756C745F616C61726D5F706F6F6C5F6909
:103D18006E697469616C697A65642829000000001D
:103D2800417474656D7074656420746F20736C657C
:103D3800657020696E73696465206F6620616E2006
:103D4800657863657074696F6E2068616E646C6510
:103D5800723B2075736520627573795F776169744A
:103D680020696620796F75206D75737400000000F6
:103D7800486172647761726520616C61726D20259B
:103D88006420616C726561647920636C61696D653A
:103D98006400000076636F5F66726571203E3D20A7
:103DA8005049434F5F504C4C5F56434F5F4D494E0F
:103DB8005F465245515F485A2026262076636F5F3A
:103DC80066726571203C3D205049434F5F504C4C12
:103DD8005F56434F5F4D41585F465245515F485AC1
:103DE800000000002F686F6D652F7069636F322FB8
:103DF8007069636F2D73646B2F7372632F727032E7
:103E08005F636F6D6D6F6E2F686172647761726545
:103E18005F706C6C2F706C6C2E6300006662646956
:103E280076203E3D2031362026262066626469765B
:103E3800203C3D203332300028706F73745F646912
:103E48007631203E3D203120262620706F73745F26
:103E580064697631203C3D203729202626202870A9
:103E68006F73745F64697632203E3D2031202626C8
:103E780020706F73745F64697632203C3D20372967
:103E8800000000007265665F66726571203C3D2027
:103E98002876636F5F66726571202F20313629009E
:103EA8004465627567000000626F6F74325F773235
:103EB8003571303830000000322E322E30000000CC
:103EC8007069636F320000004469736B536174005A
:103ED8004D6179203131203230323600666E692BDF
:103EE80000000000666E69006E616E00666E692DE6
:103EF800000000002C2066756E6374696F6E3A20AE
:103F080000000000617373657274696F6E2022256A
:103F18007322206661696C65643A2066696C652065
:103F2800222573222C206C696E6520256425732553
:103F3800730A00005541525420737464696E00007E
:103F480055415254207374646F757400554152542E
:103F580020737464696E202F207374646F75740005
:103F68007364615F74785F686F6C645F636F756EAC
:103F780074203C3D206C636E74202D2032000000BC
:103F88002F686F6D652F7069636F322F7069636F6B
:103F98002D73646B2F7372632F7270325F636F6D52
:103FA8006D6F6E2F68617264776172655F693263E5
:103FB8002F6932632E6300006972715F6164645F08
:103FC8007461696C5F746F5F667265655F6C697355
:103FD80074000000696E736572745F626C5F3332DF
:103FE800000000006972715F72656D6F76655F68C9
:103FF800616E646C657200006D616B655F6A5F314C
:10400800360000007265736F6C76655F6A5F3136E3
:10401800000000006972715F7365745F6578636C96
:1040280075736976655F68616E646C65720000001F
:104038006D757465785F6578697400006D75746571
:10404800785F656E7465725F626C6F636B5F756EC7
:1040580074696C0072756E74696D655F696E6974F8
:104068005F6D757465780000616C61726D5F706F6B
:104078006F6C5F6765745F64656661756C7400007A
:10408800616C61726D5F706F6F6C5F6972715F6890
:10409800616E646C65720000706C6C5F696E697447
:1040A8000000000006005250D3F07542A83E0010F0
:1040B80006005250E182887FB03E00100600525040
:1040C800ABB36053C03E001006005250BBFF3CB675
:1040D800C83E001006005250861C0302D03E001055
:1040E800060052505422A29DD83E0010050052509E
:1040F800DE65F46804470010000000000000F03F8F
:1041080000000000000024400000000000005940AA
:104118000000000000408F40000000000088C340FD
:1041280000000000006AF8400000000080842E4172
:1041380000000000D01263410000000084D79741BE
:104148000000000065CDCD410D0A00000600525068
:1041580053B4F4A1543F001008005250120000005C
:1041680008005250921000006932635F7365745FF3
:0C417800626175647261746500000000F3
:0841840008F6FF7F01000000B6
:10418C00AC400010B8400010C4400010D0400010EB
:10419C00DC400010E8400010F440001068410010B2
:0841AC006041001054410010B5
:1041B40000B503460068EFF3108272B6D0E8CFEF83
:1041C4005FF0010CBEF1000FF8D1C0E84ECFBEF194
:1041D400000FF3D1BFF35F8F93F9040000280ADBCB
:1041E40081B10860002019680023C1E88F3F82F381
:1041F40010885DF804FB4FF0504191F900101971DB
:104204000120F0E70020EEE7F8B51E460368002B16
:1042140027D0044615464FF0504393F900702168A7
:10422400EFF3108C72B6D1E8CF2F0123002AFAD114
:10423400C1E8423F002AF6D1BFF35F8F94F904E04E
:10424400BEF1000F13DB22680023C2E88F3F8CF31A
:1042540010882846314600F0FBF90028DFD0002002
:104264000DE0074B074AA621074800F0F5F927712E
:1042740022680023C2E88F3F8CF310880120F8BD28
:10428400583C0010444000101C3C001070B582B033
:10429400064615461C4601A9FFF78AFF38B99DF961
:1042A40004204FF0504393F900309A4201D102B0F8
:1042B40070BD2A4623463046FFF7A6FFF7E7000005
:1042C40008B50268EFF3108372B6D2E8CFCF0121AC
:1042D400BCF1000FF9D1C2E84C1FBCF1000FF4D1BE
:1042E400BFF35F8F90F90420002A09DBFF220271DB
:1042F40001680022C1E88F2F83F3108840BF08BDF6
:10430400024B034AD521034800F0A6F96C3C001087
:10431400384000101C3C001053B94AB9002908BFAA
:1043240000281CBF4FF0FF314FF0FF3000F08CB974
:10433400ADF1080C6DE904CE00F006F8DDF804E0F8
:10434400DDE9022304B070472DE9F04F099D0E46C4
:1043540004460F46002B47D18A429446B2FA82F3B0
:104364005AD943B102FA03FCC3F120029F409C4096
:1043740020FA02F217434FEA1C461FFA8CFE220C65
:10438400B7FBF6F106FB117701FB0EF042EA074298
:10439400904208D91CEB020201F1FF3702D290428D
:1043A40000F23C813946121AA4B2B2FBF6F006FBC5
:1043B400102200FB0EFE44EA0244A64508D91CEB79
:1043C400040400F1FF3202D2A64500F22A8110460D
:1043D40040EA0140A4EB0E0400211DB1DC4000239F
:1043E400C5E90043BDE8F08F8B4205D90DB1C5E99D
:1043F400000100210846F5E7B3FA83F100294FD103
:10440400B342C0F00281824240F2FF800846002D90
:10441400E8D0C5E90047E5E7002B40F0AF808A1AF1
:104424004FEA1C4E1FFA8CF70121B2FBFEF60EFB7D
:104434001620220C42EA004207FB06F090420FD9F4
:104444001CEB020206F1FF382CBF4FF001094FF0BC
:104454000009904203D9B9F1000F00F0DC80464610
:10446400121AA4B2B2FBFEF00EFB102200FB07F7F7
:1044740044EA0244A7420FD91CEB040400F1FF32C2
:104484002CBF4FF0010E4FF0000EA74203D9BEF12E
:10449400000F00F0C9801046E41B40EA06409CE788
:1044A400C1F120048B4006FA01FC00FA01FE22FA55
:1044B40004F7E6408A401F4320FA04F34FEA174802
:1044C40043EA0C031FFA87FC4FEA1349B6FBF8F0E2
:1044D40008FB106649EA064600FB0CF9B1450ED903
:1044E400BE1900F1FF3A2CBF4FF0010B4FF0000B47
:1044F400B14503D9BBF1000F00F0A2805046A6EBF2
:1045040009061FFA83F9B6FBF8F308FB136603FBED
:104514000CFC49EA0646B4450ED9BE1903F1FF382E
:104524002CBF4FF001094FF00009B44503D9B9F18C
:10453400000F00F08280434643EA0040A6EB0C06DD
:10454400A0FB028C66454346E14602D307D1C6452B
:1045540005D2B8EB02036CEB070C0138E1465DB100
:10456400BEEB030266EB090606FA04F422FA01F331
:10457400CE401C43C5E90046002133E702FA03FCA0
:10458400C3F1200299409C40D6404FEA1C4E20FAC9
:1045940002F21FFA8CF7B6FBFEF00A430EFB10661C
:1045A400110C41EA064100FB07F68E420ED91CEBC2
:1045B400010100F1FF382CBF4FF001094FF0000951
:1045C4008E4202D9B9F1000F34D04046891B92B211
:1045D400B1FBFEF60EFB161142EA014206FB07F19F
:1045E40091420ED91CEB020206F1FF382CBF4FF0AA
:1045F40001094FF00009914202D9B9F1000F16D018
:104604004646521A46EA00410FE7841A66EB030253
:1046140001201746FBE6023E624421E70239624468
:10462400C1E664440238D3E66444023834E7023E07
:104634006244E6E702386144C8E7023B3E447BE754
:1046440002383E445BE700BF704700BF0000000033
:104654005FF800F0211200105FF800F0F92E00104E
:104664001000000000000000000001000000000035
:104674000000000000000200000000000000000034
:104684000000030000000000000000000000FF0024
:104694000000000001B5486801318E4600477046AD
:1046A40009380149884701BDA9090010000000002C
:1046B40000000000000000000000000000000000F6
:1046C40050060020753200100D3300109532001092
:1046D4002133001000000000000100000000094028
:0C46E400000000000000000000000000CA
:1046F000D3DEFFFFFE010000FF01000048BAFFFF0C
:04470000793512AB4A
:040000051000014D99
:00000001FF
